:1000000002008AE5836003E49322A882E622E58366
:100010006004E4938003A882E6F822E5836004E4A8
:10002000938003A882E6F922E5836004E4938003C9
:10003000A882E6FA22E5836004E4938003A882E6BE
:10004000FB22E5836004E4938003A882E6FC22E5BA
:10005000836004E4938003A882E6FD22E5836004C4
:10006000E4938003A882E6FE22E5836004E49380A3
:1000700003A882E6FF22E4F5D075812A78207A0A67
:0D008000F608DAFC1201070200000200760B
:10010000444F55424C45000203577528017529009C
:1001100075803875A00175A000E4F520F521020373
:1001200047E52124FDE52034FF4002800302022C34
:10013000E4F524F525801175802075A00375A002D3
:100140000525E52570020524E520B52407E521B540
:10015000250280065002800280DDE4F522F523E5C9
:100160002324FAE52234FF500280028002802DE52C
:10017000232529F582E5223528F583120003F58031
:1001800075A00375A0020523E52370020522E5236F
:1001900024FAE52234FF5002800280D37580017575
:1001A000A00175A0007580C075A00175A000E4F5E0
:1001B00022F523801175802075A00375A002052308
:1001C000E52370020522E520B52207E521B52302CB
:1001D00080065002800280DDE4F524F525E5252423
:1001E000FAE52434FF500280028002802DE52525A7
:1001F00029F582E5243528F583120003F58075A0E2
:100200000375A0020525E52570020524E52524FADD
:10021000E52434FF5002800280D375800175A0016F
:1002200075A00075808075A00175A000E52124FCF3
:10023000E52034FF50028003020337752400752542
:1002400001801175802075A00375A0020525E525A4
:1002500070020524E520B52407E521B525028006B6
:100260005002800280DDE4F522F523801FE523257E
:1002700029F582E5223528F583120003F58075A063
:100280000375A0020523E523700205227409C395B6
:1002900025FD74009524FCECB52206EDB523028003
:1002A000065002800280C675800175A00175A0000D
:1002B0007580C075A00175A00075220075230180AE
:1002C0001175802075A00375A0020523E523700237
:1002D0000522E520B52207E521B52302800650025C
:1002E000800280DDE4F524F525801FE5252529F52C
:1002F00082E5243528F583120003F58075A0037587
:10030000A0020525E525700205247409C39523FD87
:1003100074009522FCECB52406EDB525028006504C
:1003200002800280C675800175A00175A0007580ED
:100330008075A00175A0000521E52170020520054A
:1003400027E52770020526E52724FEE52634FF5021
:0A0350000280030201212202010ACB
:00000001FF
